{
  "contractName": "Voting",
  "abi": [
    {
      "inputs": [],
      "stateMutability": "nonpayable",
      "type": "constructor"
    },
    {
      "inputs": [],
      "name": "jumlahKandidat",
      "outputs": [
        {
          "internalType": "uint256",
          "name": "",
          "type": "uint256"
        }
      ],
      "stateMutability": "view",
      "type": "function"
    },
    {
      "inputs": [
        {
          "internalType": "uint256",
          "name": "",
          "type": "uint256"
        }
      ],
      "name": "paraKandidat",
      "outputs": [
        {
          "internalType": "uint256",
          "name": "id",
          "type": "uint256"
        },
        {
          "internalType": "string",
          "name": "nama",
          "type": "string"
        },
        {
          "internalType": "uint256",
          "name": "jumlahVote",
          "type": "uint256"
        }
      ],
      "stateMutability": "view",
      "type": "function"
    },
    {
      "inputs": [
        {
          "internalType": "address",
          "name": "",
          "type": "address"
        }
      ],
      "name": "paraPemilih",
      "outputs": [
        {
          "internalType": "bool",
          "name": "",
          "type": "bool"
        }
      ],
      "stateMutability": "view",
      "type": "function"
    },
    {
      "inputs": [
        {
          "internalType": "uint256",
          "name": "_kandidatId",
          "type": "uint256"
        }
      ],
      "name": "vote",
      "outputs": [],
      "stateMutability": "nonpayable",
      "type": "function"
    }
  ],
  "bytecode": "0x60806040523480156200001157600080fd5b50620000586040518060400160405280600a81526020017f4b616e6469646174203100000000000000000000000000000000000000000000815250620000a460201b60201c565b6200009e6040518060400160405280600a81526020017f4b616e6469646174203200000000000000000000000000000000000000000000815250620000a460201b60201c565b62000500565b60026000815480929190620000b9906200015c565b919050555060405180606001604052806002548152602001828152602001600081525060016000600254815260200190815260200160002060008201518160000155602082015181600101908162000112919062000419565b506040820151816002015590505050565b7f4e487b7100000000000000000000000000000000000000000000000000000000600052601160045260246000fd5b6000819050919050565b6000620001698262000152565b91507fffffffffffffffffffffffffffffffffffffffffffffffffffffffffffffffff82036200019e576200019d62000123565b5b600182019050919050565b600081519050919050565b7f4e487b7100000000000000000000000000000000000000000000000000000000600052604160045260246000fd5b7f4e487b7100000000000000000000000000000000000000000000000000000000600052602260045260246000fd5b600060028204905060018216806200022b57607f821691505b602082108103620002415762000240620001e3565b5b50919050565b60008190508160005260206000209050919050565b60006020601f8301049050919050565b600082821b905092915050565b600060088302620002ab7fffffffffffffffffffffffffffffffffffffffffffffffffffffffffffffffff826200026c565b620002b786836200026c565b95508019841693508086168417925050509392505050565b6000819050919050565b6000620002fa620002f4620002ee8462000152565b620002cf565b62000152565b9050919050565b6000819050919050565b6200031683620002d9565b6200032e620003258262000301565b84845462000279565b825550505050565b600090565b6200034562000336565b620003528184846200030b565b505050565b5b818110156200037a576200036e6000826200033b565b60018101905062000358565b5050565b601f821115620003c957620003938162000247565b6200039e846200025c565b81016020851015620003ae578190505b620003c6620003bd856200025c565b83018262000357565b50505b505050565b600082821c905092915050565b6000620003ee60001984600802620003ce565b1980831691505092915050565b6000620004098383620003db565b9150826002028217905092915050565b6200042482620001a9565b67ffffffffffffffff81111562000440576200043f620001b4565b5b6200044c825462000212565b620004598282856200037e565b600060209050601f8311600181146200049157600084156200047c578287015190505b620004888582620003fb565b865550620004f8565b601f198416620004a18662000247565b60005b82811015620004cb57848901518255600182019150602085019450602081019050620004a4565b86831015620004eb5784890151620004e7601f891682620003db565b8355505b6001600288020188555050505b505050505050565b6105ea80620005106000396000f3fe608060405234801561001057600080fd5b506004361061004c5760003560e01c80630121b93f14610051578063089ba5111461006d5780638076ad5a1461008b578063c607b412146100bb575b600080fd5b61006b600480360381019061006691906102f7565b6100ed565b005b6100756101e4565b6040516100829190610333565b60405180910390f35b6100a560048036038101906100a091906103ac565b6101ea565b6040516100b291906103f4565b60405180910390f35b6100d560048036038101906100d091906102f7565b61020a565b6040516100e49392919061049f565b60405180910390f35b6000803373ffffffffffffffffffffffffffffffffffffffff1673ffffffffffffffffffffffffffffffffffffffff16815260200190815260200160002060009054906101000a900460ff161561014357600080fd5b60008111801561015557506002548111155b61015e57600080fd5b60016000803373ffffffffffffffffffffffffffffffffffffffff1673ffffffffffffffffffffffffffffffffffffffff16815260200190815260200160002060006101000a81548160ff0219169083151502179055506001600082815260200190815260200160002060020160008154809291906101dc9061050c565b919050555050565b60025481565b60006020528060005260406000206000915054906101000a900460ff1681565b600160205280600052604060002060009150905080600001549080600101805461023390610583565b80601f016020809104026020016040519081016040528092919081815260200182805461025f90610583565b80156102ac5780601f10610281576101008083540402835291602001916102ac565b820191906000526020600020905b81548152906001019060200180831161028f57829003601f168201915b5050505050908060020154905083565b600080fd5b6000819050919050565b6102d4816102c1565b81146102df57600080fd5b50565b6000813590506102f1816102cb565b92915050565b60006020828403121561030d5761030c6102bc565b5b600061031b848285016102e2565b91505092915050565b61032d816102c1565b82525050565b60006020820190506103486000830184610324565b92915050565b600073ffffffffffffffffffffffffffffffffffffffff82169050919050565b60006103798261034e565b9050919050565b6103898161036e565b811461039457600080fd5b50565b6000813590506103a681610380565b92915050565b6000602082840312156103c2576103c16102bc565b5b60006103d084828501610397565b91505092915050565b60008115159050919050565b6103ee816103d9565b82525050565b600060208201905061040960008301846103e5565b92915050565b600081519050919050565b600082825260208201905092915050565b60005b8381101561044957808201518184015260208101905061042e565b60008484015250505050565b6000601f19601f8301169050919050565b60006104718261040f565b61047b818561041a565b935061048b81856020860161042b565b61049481610455565b840191505092915050565b60006060820190506104b46000830186610324565b81810360208301526104c68185610466565b90506104d56040830184610324565b949350505050565b7f4e487b7100000000000000000000000000000000000000000000000000000000600052601160045260246000fd5b6000610517826102c1565b91507fffffffffffffffffffffffffffffffffffffffffffffffffffffffffffffffff8203610549576105486104dd565b5b600182019050919050565b7f4e487b7100000000000000000000000000000000000000000000000000000000600052602260045260246000fd5b6000600282049050600182168061059b57607f821691505b6020821081036105ae576105ad610554565b5b5091905056fea26469706673582212200ce753cde0d36cfdd878789bc1339191650032e165b7c1ebb80e19b0e1e91bd464736f6c63430008110033",
  "immutableReferences": {},
  "source": "// SPDX-License-Identifier: MIT\npragma solidity >=0.4.22 <0.9.0;\n\ncontract Voting {\n    struct Kandidat {\n        uint id;\n        string nama;\n        uint jumlahVote;\n    }\n    mapping(address=>bool) public paraPemilih;\n    mapping(uint=>Kandidat) public paraKandidat;\n    uint public jumlahKandidat;\n    \n    constructor() {\n        tambahKandidat(\"Kandidat 1\");\n        tambahKandidat(\"Kandidat 2\");\n    }      \n\n    function tambahKandidat(string memory _nama) private {\n        jumlahKandidat++;\n        paraKandidat[jumlahKandidat] = Kandidat(jumlahKandidat, _nama, 0);\n    }\n    function vote(uint _kandidatId) public {\n        require(!paraPemilih[msg.sender]);\n        require(_kandidatId > 0 && _kandidatId <= jumlahKandidat);\n        paraPemilih[msg.sender] = true;\n        \n        paraKandidat[_kandidatId].jumlahVote++; \n    }\n}",
  "sourcePath": "D:\\Informatika\\Blockchain\\Tugas Kelompok\\voting-app\\contracts\\Voting.sol",
  "compiler": {
    "name": "solc",
    "version": "0.8.17+commit.8df45f5f.Emscripten.clang"
  },
  "schemaVersion": "3.4.10",
  "updatedAt": "2022-10-28T02:15:10.679Z",
  "devdoc": {
    "kind": "dev",
    "methods": {},
    "version": 1
  },
  "userdoc": {
    "kind": "user",
    "methods": {},
    "version": 1
  }
}